:020000040800F2
:1000000000180020510400082D0400082F040008E7
:1000100000000000000000000000000000000000E0
:100020000000000000000000000000003104000893
:100030000000000000000000330400083504000840
:10004000D1040008D1040008D1040008D10400083C
:10005000D1040008D1040008D1040008D10400082C
:10006000D1040008D1040008D1040008D10400081C
:10007000D1040008D1040008D1040008D10400080C
:10008000D10400080000000000000000D1040008B6
:1000900000000000D1040008D1040008D1040008C9
:1000A00000000000D1040008D1040008D1040008B9
:1000B000D104000800000000D10400083D0400083D
:1000C00010B5064C2378002B07D1054B002B02D02E
:1000D000044800E000BF0123237010BD8001002010
:1000E000000000002C3F0008044B10B5002B03D08B
:1000F0000349044800E000BF10BDC04600000000F6
:10010000840100202C3F0008002243088B4274D356
:1001100003098B425FD3030A8B4244D3030B8B4208
:1001200028D3030C8B420DD3FF22090212BA030C11
:100130008B4202D31212090265D0030B8B4219D3F2
:1001400000E0090AC30B8B4201D3CB03C01A524112
:10015000830B8B4201D38B03C01A5241430B8B425A
:1001600001D34B03C01A5241030B8B4201D30B0343
:10017000C01A5241C30A8B4201D3CB02C01A52416A
:10018000830A8B4201D38B02C01A5241430A8B422D
:1001900001D34B02C01A5241030A8B4201D30B0216
:1001A000C01A5241CDD2C3098B4201D3CB01C01A30
:1001B000524183098B4201D38B01C01A524143093A
:1001C0008B4201D34B01C01A524103098B4201D328
:1001D0000B01C01A5241C3088B4201D3CB00C01A95
:1001E000524183088B4201D38B00C01A524143080D
:1001F0008B4201D34B00C01A5241411A00D2014632
:10020000524110467047FFE701B5002000F006F8A4
:1002100002BDC0460029F7D076E770477047C04658
:10022000F0B589B01422002103A803F052FE1A4B46
:100230005A698021C9030A435A615A690A400192E6
:10024000019A5A69802189020A435A615B690B400D
:100250000293029B114F01220121380000F0ACFAF9
:100260009025ED0501221021280000F0A5FA0124B7
:100270000394049405940026069603A9380000F020
:10028000DDF91023039304940594069603A928002E
:1002900000F0D4F909B0F0BD00100240001400488D
:1002A00010B586B01B4C226980231B0413432361C5
:1002B000C82000F059F92369174A13402361636984
:1002C0008022920213436361636913400093009B91
:1002D000C0235B0101930123029301330393013394
:1002E00004939024E40501A9200000F0A7F98021DF
:1002F00000220901200000F05FFA8021002249015C
:10030000200000F059FA9620400000F02DF906B0C8
:1003100010BDC04600100240FFFF7FFF72B6FEE72F
:1003200000B599B0342200210BA803F0D2FD1022B1
:10033000002107A803F0CDFD1822002101A803F039
:10034000C8FD20230B931F3B13930BA801F012FA57
:10035000002818D107230793043B0893002309932F
:100360000A93012107A801F0E3FC00280DD18023A6
:100370009B0201930023069301A801F07BFD002856
:1003800005D119B000BDFFF7C9FFFFF7C7FFFFF7A1
:10039000C5FF000070B500F0C5F8FFF7C1FFFFF71B
:1003A0007FFFFFF73DFF03F05BFB0F4D00220121B4
:1003B000280000F001FA9024E4050022102120001A
:1003C00000F0FAF9642000F0CFF8012201212800A2
:1003D00000F0F2F901221021200000F0EDF90348AD
:1003E00000F0C2F8FEE7C0460014004846050000D1
:1003F00082B00C4B996901221143996199690A40B5
:100400000092009ADA69802149050A43DA61DB69C2
:100410000B400193019B044A136810210B431360A6
:1004200002B070470010024000000140FEE7FEE706
:100430007047704710B500F085F810BD10B5024840
:1004400000F076FF10BDC04668060020704700002F
:1004500013488546FFF7FAFF12480168090E124A51
:10046000914205D1114812490160124812490160B8
:1004700012481349134A002302E0D458C4500433ED
:10048000C4188C42F9D3104A104C002301E01360C9
:100490000432A242FBD303F025FDFFF77BFFFEE70A
:1004A00000180020040000001F0000001810024087
:1004B00001000000000001400000000000000020DA
:1004C000800100203840000880010020B40900208D
:1004D000FEE7000010B504000F4B1978FA208000E9
:1004E000FFF712FE01000D4B1868FFF70DFE00F03C
:1004F00089F800280DD1032C01D901200AE0013030
:1005000000222100404200F041F8054B1C60002011
:1005100000E0012010BDC0460400002000000020C3
:100520000800002010B5064A136810210B43136021
:100530000320FFF7CFFFFFF75BFF002010BDC04691
:1005400000200240034A1168034B1B785B181360BC
:100550007047C0469C01002004000020014B186831
:100560007047C0469C01002070B50400FFF7F6FFFD
:100570000500631C02D0044B1B78E418FFF7EEFF64
:10058000401BA042FAD370BD0400002070B50028C3
:1005900011DB8308134DC0339B005C5903221040CC
:1005A000C000FC3216008640B44389010A408240F4
:1005B00022435A5170BD0F230340083B9B0806336A
:1005C0009B00094A944663445C6803221040C000C3
:1005D000FC3215008540AC4389010A408240224329
:1005E0005A60E7E700E100E000ED00E0002805DBED
:1005F0001F2318401E3B8340014A13607047C046CA
:1006000000E100E0013880235B0498420FD2094AE0
:1006100050600948036A1B021B0AC02109060B43EC
:1006200003620023936007331360002070470120AA
:10063000FCE7C04610E000E000ED00E0F0B583B05C
:10064000002356E086685F000324BC40A643CC68C4
:10065000BC4034438460446894434E6836090122A8
:1006600032409A402243426053E0DE080836B6002A
:10067000375805321A4092000F249440A7430C6962
:10068000944022003A43325056E0022600E0002611
:10069000A64034003C4302329200424E9451424AFA
:1006A0009768EA433E00AE434C68E40201D53E0041
:1006B0002E433D4CA660E7683E0016404C68A402FD
:1006C00001D53E002E43384CE66067683E00164078
:1006D0004C68A40301D53E002E43334C6660266867
:1006E00032404C68E40301D52A0032432E4C22608C
:1006F00001330C682200DA4051D001229A402500D3
:1007000015401442F4D04E6803243440013C012CBF
:1007100098D94C6803222240032A08D0C4685E009E
:100720000322B24094438A68B2402243C2604C68BC
:1007300003222240022A98D004685E000322170098
:10074000B740BC434F683A40B240224302604C6815
:10075000C02292021442CBD0144CA6690122164347
:10076000A661A46922400192019A9A08941CA400EF
:100770000C4EA75903241C40A4000F26A640B743E3
:100780009026F605B04282D0094EB04205D0094EFF
:10079000B04200D179E705267AE7012678E703B071
:1007A000F0BDC046000001400004014000100240BE
:1007B0000004004800080048002A01D08161704709
:1007C0008162FCE770B553043CD504685023E35ABA
:1007D0000D78EE009B191B19384CA44663441C8805
:1007E000A405A40D8B69A34222D31B1B8B618B69CB
:1007F000002B0CD10368AD005D192B88304E3340BF
:100800008026B6015E402F4B33439BB22B805206AD
:100810000AD502680B789B00D21815882A4B1D4018
:100820002A4B2B439BB21380002C04D1200070BDB7
:1008300000238B61DBE700680A894969230002F025
:1008400061FAF3E704685023E35A0D78EE009B1930
:100850001B191F4CA44663441C88A405A40D8B6976
:10086000A34227D31B1B8B618B69002B0CD1036820
:10087000AD005D192B88124E33408026B6015E40D4
:10088000104B33439BB22B8052060AD402680B787C
:100890009B00D21815880C4B1D400C4B2B439BB270
:1008A0001380002CC2D000684A894969230002F0F5
:1008B00029FABBE700238B61D6E7C046020400009B
:1008C0008FBFFFFF8080FFFF8F8FFFFFC080FFFF84
:1008D0000604000070B586B0041E66D0344BC35CBD
:1008E000002B07D0324B0322E254206801F070FB4A
:1008F00000221BE0AA239B000022C25403F0BEF991
:10090000F0E7501C83001918C900611801254D70CB
:100910001918C9000A5563180025DD70930099184D
:10092000C90061188D63CD630D64C2B260688242F4
:10093000E7D3002119E08A005318DB00E3181E00FA
:100940006A36FF3600253570013E3170033635704A
:100950000D3635607D33FF331D605218D200A2186A
:100960008132FF3215600131C9B28842E3D8206874
:10097000230010336A4662CB62C222CB22C2616876
:10098000A268E36801F02EFB24230022E254084B06
:100990000132E254E369012B02D0002006B070BDA1
:1009A000200000F0D1FE0020F8E70120F6E7C04665
:1009B000A902000070B50400AA239B00C35C012BB0
:1009C0000DD0AA25AD0001234355006801F0F6FAC9
:1009D000206801F0DFFD00236355002070BD022078
:1009E000FCE7000070B505000C001600530600D4AB
:1009F000EEE002685023D35A0978C8001B189B18F0
:100A0000AB4A944663441A889205920DA3699342B7
:100A100040D99B1AA361A369002B59D16378002B9D
:100A20003BD12B6850229A5A9B18C318A04A94466F
:100A300063441A889205920D1A801A889D490A43C8
:100A400092B21A802B686278002A33D150329A5AB7
:100A50009A182378DB009B18974A944663441A88B7
:100A60009205920D1A801A8892490A4392B21A800E
:100A70002178280003F03CF9760439D52A682378D8
:100A80009B00D21811888D4B19408D4B0B439BB2A4
:100A900013802DE00023A361BDE7012BD2D12B6889
:100AA00050229A5A9B18C018814B9C4660440023E0
:100AB0000380C7E7012ADBD14F329A5A9B1822786C
:100AC000D200D3187C4A9446634400221A80CFE7B0
:100AD000760409D52B68890059180888774B184087
:100AE000774B03439BB20B802423E35C012B0FD095
:100AF000296823789B00C9180B88724A134030225A
:100B000053409BB2704A13439BB20B80002070BDD0
:100B100063699B186361E3699B18E361216A236938
:100B2000994221D3C91A21626278002A3AD12A68EF
:100B30005021515A51182278D20052185C498C46E3
:100B4000624411888905890D11803E2B18D95909F5
:100B5000D80600D101391088890289B20843554965
:100B6000014389B211801FE0002903D12423E154FD
:100B70001300D9E700232422A35423620B00D3E7F8
:100B8000002B05D111884B48014389B211800BE03D
:100B90005908D80700D501311088890289B201436C
:100BA000118001E0012A06D028689BB22289616980
:100BB00001F0FEFC9CE72A685021515A5118227816
:100BC000D20052183A498C46624499B21180EBE740
:100BD00002685023D35A0978C8001B189B18364A5C
:100BE000944663441A889205920DA369934241D3B7
:100BF0009B1AA361A369002B68D16378002B3CD1B9
:100C00002B6850229A5A9B181B18294A9446634411
:100C10001A889205920D1A801A8826490A4392B2C0
:100C20001A802B686278002A34D150329A5A9B1865
:100C30002278D2009B18204A944663441A88920571
:100C4000920D1A801A881B490A4392B21A802178A1
:100C5000280003F04DF8760400D549E72A68237888
:100C60009B00D2181188154B1940154B0B439BB2B2
:100C700013803DE70023A361BCE7012BD1D12B6892
:100C800050229A5A9B181B18094A94466344002222
:100C90001A80C6E7012ADAD14F329A5A9B18227875
:100CA000D2009B18044A9446634400221A80CEE77F
:100CB000020400000080FFFF060400008F8FFFFF8A
:100CC00080C0FFFFBF8FFFFF8080FFFF760409D445
:100CD0002B68890059180888344B1840344B03435B
:100CE0009BB20B802423E35C012B00D000E76369F7
:100CF0009B186361E3699B18E361216A2369994248
:100D000021D3C91A21622A686178002939D150316A
:100D1000515A52182178C900521826498C4662440B
:100D200011888905890D11803E2B18D95909D806DB
:100D300000D101391088890289B208431E49014354
:100D400089B211801FE0002903D12423E15413004C
:100D5000D9E7002323622422A3540B00D3E7002BFE
:100D600005D111881448014389B211800BE059085C
:100D7000D80700D501311088890289B2014311805A
:100D800001E0012906D028689BB26289616901F0FF
:100D90000FFCADE64F31515A52182178C900521854
:100DA00004498C46624499B21180ECE78F8FFFFFB3
:100DB00080C0FFFF060400000080FFFFF8B5CE46AC
:100DC000474680B5040020684423C35A1BB2002B59
:100DD00000DB87E24423C35A99B20F221D0015405D
:100DE000134200D0CEE0C90664D503889AB21B0531
:100DF00000D591E012B2002AE5DA0388B84A134020
:100E0000802213439BB2038020685023C35AB4222C
:100E10005200A25CD2009B181B18B24A944663444D
:100E20001B889B059B0D22006932FF32D361002B8A
:100E30000ED0516900290BD01500D28801F062FF55
:100E4000EA696B699B186B610021200002F041FF89
:100E50002268138899B21B05B5D4C0239B011940A1
:100E60009942B0D05023D35AD2189E4B9C4662442C
:100E700013889B059B0D138023006933FF331B6987
:100E80003E2B6DD95909DB0600D10139138889023F
:100E900089B21943944B0B439BB2138021680B8892
:100EA000924A1340C02292015A40914B13439BB285
:100EB0000B8088E702888F4B1A408B4B13439BB201
:100EC000038021685023CB5A2822A25CD2009B18B1
:100ED0005B18894A944663441B889B059B0D636499
:100EE000E26BD318E3630021200002F001FF24230A
:100EF000E35C002B00D166E7236C002B00D062E797
:100F00002422A35C2068802149420B43DBB2CC3110
:100F100043520023A35456E75023C35AB42252002D
:100F2000A25CD2009B181B186E4A944663441B882F
:100F30009B059B0D22006932FF32D361AC218900F1
:100F40006118D28801F0DEFE2268138864490B40E4
:100F500080210B439BB21380200002F0AFFE32E7EA
:100F6000002B05D1138860490B439BB2138095E792
:100F70005908DB0700D501311388890289B20B4378
:100F800013808BE7AE00801903889FB21BB2002B41
:100F900045DB3B0600D416E76B1C9C469B00624673
:100FA0009918C9006118206880190688514A1640AE
:100FB0004D4A324392B20280CB78012B00D105E139
:100FC000FB0500D589E120685023C35A6E1CB2008E
:100FD0009219D200165DF2009B181B18464A9446DF
:100FE00063441A889205920DAB005B19DB00E3188D
:100FF0001F6C974200D85CE1AB005B19DB00E31883
:10100000BF1A1F64AB005B19DB00E3181B6C002BDD
:1010100000D055E13100200002F06AFED3E60388DB
:101020002F4A1340802213439BB203807219D200CF
:101030006932FF329046A0447319DB00E318753320
:10104000FF331B78002B59D120685033C25A7319D3
:10105000DB00E3186933FF331B78DB00D3181B1860
:10106000204A944663441B889B059A0D9146002BA9
:1010700028D14946AA005219D200A2181000853082
:10108000FF3003684B440360083803684B44036037
:101090008132FF321368002B09D0AB005B19DB00F3
:1010A000E3187933FF331B68994200D389E0AB0022
:1010B0005B19DB00E3186933FF331978200002F075
:1010C00008FE66E77319DB00E3181A006F32FF327F
:1010D00012887D33FF3319684B4601F013FEC8E7D1
:1010E0008F0F0000060400000080FFFF8FBFFFFF8E
:1010F0008080FFFF0F8FFFFF02040000AB005B1931
:10110000DB00E3186C33FF331B78022B34D02168EB
:10111000AB005B19DB00E3186933FF331A789200E8
:1011200089180888724A1040724A024392B20A80B3
:1011300020681B789A0082181288520423D5502206
:10114000825ADB00D3181B186B4A944663441B88F1
:101150009B059A0D9146002B8BD0AB005B19DB00F1
:10116000E3181A007132FF3212887D33FF33196899
:101170004B4601F0C7FD7CE73A0041462000FFF7EF
:1011800021FB814675E75022825ADB00D3181B18D9
:101190005A4A944663441B889B059A0D9146002B3E
:1011A00000D166E7AB005B19DB00E3181A0073326D
:1011B000FF3212887D33FF3319684B4601F0A2FDE0
:1011C00057E72068414601F007FAE2E6AB005B19F9
:1011D000DB00E31800221A6434331B78002B1BD089
:1011E0007F0635D54B78002B1FD1236850229A5AA1
:1011F0009A1861468B005B18DB001B5DDB009B18B7
:101200003D4A944663441A889205920D1A801A88C2
:101210003B490A4392B21A806B1C9D00ED18ED0009
:10122000295D200002F064FDCDE5012BF4D1236897
:1012300050229A5A9A18691C8B005B18DB001B5DC0
:10124000DB009B182C4A9446634400221A80E3E793
:101250002268691C8B005B18DB00E3185B78002BAD
:1012600015D15033D35AD2188B005B18DB001B5DAD
:10127000DB009B18214A944663441A889205920D1C
:101280001A801A881E490A4392B21A80C4E7012BB9
:10129000C2D14F33D35AD218691C8B005B18DB00C4
:1012A0001B5DDB009B18154A9446634400221A809C
:1012B000B2E7AB005B19DB00E31800271F64A1E66F
:1012C000AB005E19F600A619F76BBF18F763736CD5
:1012D0009B18736401F080F975E53A002000FFF770
:1012E00081FB70E50020C0BCB946B046F8BDC046E1
:1012F0008F8FFFFFC080FFFF020400000604000084
:101300000080FFFF70B50400AA239B00C35C012B83
:101310000CD0AA25AD00012343552333C1540068E6
:1013200001F030F900236355002070BD0220FCE776
:1013300070B50400006801F037F9030418D44305C0
:101340001AD4430426D483042BD4C30430D4030515
:1013500051D4030600D565E0830500D590E0C005B3
:101360001ED5216844228B5A4A4803408B5217E00D
:101370002000FFF723FD13E0216844228B5A4648E2
:1013800003408B52200002F0C7FC00212000FFF731
:10139000B9FF05E0216844228B5A404803408B5234
:1013A00070BD216844228B5A3D4803408B52F7E7B9
:1013B00021684023CA5A04208243CA522168CA5A6B
:1013C00004308243CA52B8239B00E35C012B09D04E
:1013D000200002F0C5FC216844228B5A31480340AA
:1013E0008B52DDE7B8239B000022E254002120004D
:1013F00000F0BFF9ECE7216840228B5A0820034334
:101400009BB28B5220684421435A274D2B404352B4
:1014100021688B5A042003439BB28B52200002F0B8
:101420008DFCBDE7216844228B5A802083438B5278
:10143000B8239B00E35C002B1ED12168043A8B5A31
:10144000042003439BB28B5221688B5A082003432C
:101450009BB28B52B8239B003F3AE254226854233C
:10146000D25A9208183B1340B9229200A35001218E
:10147000200000F07EF993E7200002F05FFC8FE788
:10148000216844228B5A094803408B52200002F005
:101490003CFC85E7FFFEFFFFFFFBFFFFFFBFFFFFF9
:1014A000FFDFFFFFFFEFFFFFFFF7FFFFFFFDFFFF86
:1014B00070B504000D0049B2002925DB07262E4037
:1014C000B0008119C9006931FF3161188019C0006D
:1014D00020186A30FF300026067007202840087068
:1014E0000A61CB70022B19D0AA239B00E35C012B6D
:1014F00017D0AA25AD0001236355206800F082FDB6
:1015000000236355002070BD07262E400136B00031
:101510008119C900611801264E70DEE700230B71A6
:10152000E2E70220EFE770B504000A004BB2002B9F
:1015300021DB0720084083001918C9006931FF31F9
:1015400061181B18DB00E3186A33FF3300201870A2
:10155000072313400B70AA239B00E35C012B14D0DC
:10156000AA25AD0001236355206800F0DFFE0023AB
:101570006355002070BD0720084001308300191812
:10158000C900611801204870E2E70220F2E7F8B5CF
:1015900007260E40B400A119C9006931FF31411876
:1015A000A519ED0045192F007D37FF373A602A0055
:1015B0008132FF3213600432002313606A35FF3535
:1015C0002B70A419E40004196934FF3426700068F4
:1015D00001F002F80020F8BDF0B5C64600B50726B8
:1015E0000E40771CBD00E919C90088468044B4004C
:1015F000A419E4000419E26323644C229446A44431
:101600004B3A61460A70A3640023636443465A70F0
:10161000ED19ED002E540068414600F0DDFF00207A
:1016200080BCB846F0BD70B504000B0007220A402C
:1016300041688A422AD859B200291FDB9800C11894
:10164000C9006931FF316118C018C00020186A3024
:10165000FF300023037001238B700A70AA239B00C4
:10166000E35C012B14D0AA25AD000123635520684B
:1016700000F014FF00236355002070BD501C830050
:101680001918C900611801204870E4E70120F4E747
:101690000220F2E770B504000B000F220A404168F7
:1016A0008A4230D85AB2002A23DB07201840820031
:1016B0001118C9006931FF3161181218D200A2183F
:1016C0006A32FF320020107000228A700732134005
:1016D0000B70AA239B00E35C012B16D0AA25AD005A
:1016E00001236355206800F0FFFE002363550020AE
:1016F00070BD07201840013082001118C900611820
:1017000001204870E0E70120F2E70220F0E710B581
:101710000C060CD50724214001318C006118C9004A
:101720004018002A0AD10273C380002010BD8C002B
:101730006118C9006931FF314018F2E701220273D4
:1017400003811B0C4381F0E70168BA239B0001224F
:10175000C250083B0022C25454328B5A012003432A
:101760009BB28B528B5A022003439BB28B520020B8
:101770007047704770B582B0041E00D17FE20368E5
:10178000DB072BD5B34B5A680C231340042B1DD019
:10179000B04B5A680C231340082B0ED06368012B02
:1017A00041D0002B56D1AB4B1A68AB490A401A60A6
:1017B0001A68AA490A401A603BE0A64B5B68C0223F
:1017C00052021340802252029342E7D1A14B1B6880
:1017D0009B0303D56368002B00D153E223689B076A
:1017E00077D59C4B5B680C221A4262D0994B5A68A1
:1017F0000C231340082B53D0E368002B00D18AE060
:10180000944A136801210B431360FEF7A7FE0500FD
:10181000904B1B689B0775D4FEF7A0FE401B022867
:10182000F6D903202CE28B4A116880235B020B431C
:1018300013606368002B25D0FEF790FE0500854BF2
:101840001B689B03CAD4FEF789FE401B6428F6D9A7
:10185000032015E2052B09D07E4B1A687E490A4009
:101860001A601A687D490A401A60E2E7794B1968E4
:101870008022D2020A431A601968802252020A4367
:101880001A60D6E7FEF76AFE0500724B1B689B03E1
:10189000A4D5FEF763FE401B6428F6D90320EFE1D0
:1018A0006C4B5B68C02252021340802212029342AA
:1018B000A2D1684B1B689B0703D5E368012B00D0BE
:1018C000E2E164490B68F82293432269D200134392
:1018D0000B6023681B0744D5E369002B2ED05D4ABB
:1018E000536A01210B435362FEF738FE0500594B42
:1018F0005B6A9B0735D4FEF731FE401B0228F6D900
:101900000320BDE153490B68F82293432269D200BA
:1019100013430B60DDE74F4A136801218B431360CB
:10192000FEF71CFE05004B4B1B689B07D1D5FEF74D
:1019300015FE401B0228F6D90320A1E1454A536A4F
:1019400001218B435362FEF709FE0500414B5B6AA0
:101950009B0706D5FEF702FE401B0228F6D903209E
:101960008EE123685B0700D480E03A4BDB69DB0043
:101970001DD4384BDA69802149050A43DA61DB69F5
:101980000B400193019B0125354B1B68DB0510D5EE
:10199000A368012B21D0002B36D12E4B1A6A0121CE
:1019A0008A431A621A6A03318A431A621AE00025CE
:1019B000EAE72B4A116880235B000B431360FEF7B4
:1019C000CDFD0600264B1B68DB05E1D4FEF7C6FD06
:1019D000801B6428F6D9032052E11E4A136A0121B4
:1019E0000B431362A368002B24D0FEF7B7FD06005B
:1019F000184B1B6A9B0737D4FEF7B0FD801B194BB1
:101A00009842F5D903203BE1052B09D0114B1A6A06
:101A100001218A431A621A6A03318A431A62E1E792
:101A20000C4B1A6A04210A431A621A6A03390A43E0
:101A30001A62D7E7FEF792FD0600064B1B6A9B076A
:101A400012D5FEF78BFD801B064B9842F5D903207B
:101A500016E1C04600100240FFFFFEFFFFFFFBFF44
:101A60000070004088130000012D39D02368DB0688
:101A700010D56369012B39D0053357D1894A536B8F
:101A800004218B435363536BF4318B43A169C90029
:101A90000B43536323689B066ED5824B5A680C2315
:101AA00013400C2B60D07F4B5A680C231340082B3B
:101AB00053D0236A002B7ED07A4A516B80235B027D
:101AC0000B435363FEF74AFD0500764B5B6B9B03AC
:101AD00052D4FEF743FD401B0228F6D90320CFE085
:101AE000704AD36970490B40D361BFE76D4B5A6BA5
:101AF00004210A435A635A6B03390A435A63FEF7B7
:101B00002DFD0500674B5B6B9B0706D4FEF726FD9A
:101B1000401B0228F6D90320B2E062494B6BF82241
:101B20009343A269D20013434B63B3E75D4B5A6BF7
:101B300004210A435A635A6B03398A435A63FEF7F6
:101B40000DFD0500574B5B6B9B07A3D5FEF706FD0C
:101B5000401B0228F6D9032092E0524B5B68C0225A
:101B6000520213409342A4D14E4B5B6B9B0303D5AF
:101B7000236A012B00D089E0636A002B00D187E043
:101B8000484A51680C220A40082A60D0022B25D00E
:101B9000444A136845490B401360FEF7DFFC04001C
:101BA000404B1B689B0150D5FEF7D8FC001B022858
:101BB000F6D9032064E03B4A536B3D490B40536325
:101BC000FEF7CCFC0500374B5B6B9B03D4D5FEF7CF
:101BD000C5FC401B0228F6D9032051E0314A1368A6
:101BE00032490B401360FEF7B9FC05002D4B1B6812
:101BF0009B0106D5FEF7B2FC401B0228F6D9032054
:101C00003EE0284BDA6A0F218A43216B0A43DA62ED
:101C10005A6828490A40E16AA06A01430A435A60A7
:101C20001968802252040A431A60FEF797FC0400E8
:101C30001C4B1B689B0106D4FEF790FC001B02287E
:101C4000F6D903201CE000201AE0002018E0012B48
:101C500020D0144B5A68D86AC0235B021340A16A93
:101C60008B4219D10F230340216B8B4216D1F023F5
:101C70009B031A40E36A9A4212D1002000E001203F
:101C800002B070BD0120FBE70120F9E70120F7E772
:101C90000020F5E70120F3E70120F1E70120EFE75D
:101CA0000120EDE700100240FFFFFFEFFFFFFFFE06
:101CB000FFFFFEFFFF7FC2FF10B5184B5A680C23D1
:101CC0001340082B03D00C2B25D1154810BD910CC7
:101CD0000F2319401348445C1049C96A0B4012494C
:101CE000C95CC0235B021A4080235B029A4208D081
:101CF000C0235B029A4209D00C48FEF705FA604304
:101D0000E4E70A48FEF700FA6043DFE70448FEF71D
:101D1000FBF96043DAE70548D8E7C0460010024007
:101D2000006CDC02543F0008643F000800127A0097
:101D300070B504000D00002800D186E0474B1A68FA
:101D4000012313408B420AD244490B68012293437A
:101D50002B430B600B681A40AA4200D077E023683F
:101D60009A070ED55B0705D53D4A5168E023DB0095
:101D70000B4353603A4A5368F0218B43A1680B43ED
:101D800053602368DB0735D56368012B09D0022B2C
:101D900024D0032B28D0324A1268920705D40120A0
:101DA00052E02F4A1268920353D52D494A68032006
:101DB000824313434B60FEF7D1FB0600284B5B6860
:101DC0000C221A4063689B009A4213D0FEF7C6FBB0
:101DD000801B244B9842F1D9032035E0204A126839
:101DE0009201E2D401202FE01D4A526B9203DCD411
:101DF000012029E0194B1A6801231340AB4209D98D
:101E000016490B68012293432B430B600B681A4061
:101E1000AA4220D123685B0706D5114A53681249AC
:101E20000B40E1680B435360FFF746FF0C4B5A68C9
:101E300012090F2313400D4AD35CD8400C4B186095
:101E40000320FEF747FB002070BD0120FCE70120C6
:101E5000FAE70120F8E70120F6E7C046002002403B
:101E60000010024088130000FFF8FFFF443F000805
:101E70000000002070B582B004000368DB0339D590
:101E8000484BDB69DB005FD4464BDA6980214905AA
:101E90000A43DA61DB690B400193019B0125424B48
:101EA0001B68DB0552D53F4B1A6AC0239B0011000B
:101EB00019401A4215D06368C022920013408B4229
:101EC0000FD0384B1A6A394911401E6A80204002EF
:101ED00030431862186A364E304018621962D207D1
:101EE00048D4304A136A31490B4061680B4313628E
:101EF000012D4ED02368DB0706D52A4A136B032138
:101F00008B43A1680B43136323689B0606D5254AC0
:101F1000136B10218B43E1680B43136323689B030E
:101F200006D5204A136B80218B4361690B431363F1
:101F300023685B0532D51B4A136B40218B43216913
:101F40000B43136300202AE00025A8E7164A116816
:101F500080235B000B431360FEF700FB0600124B6F
:101F60001B68DB059FD4FEF7F9FA801B6428F6D9BD
:101F7000032014E0FEF7F2FA06000A4B1B6A9B07E7
:101F8000AFD4FEF7EBFA801B0A4B9842F5D9032039
:101F900005E0D36908490B40D361ABE7002002B0EC
:101FA00070BDC0460010024000700040FFFCFFFF03
:101FB000FFFFFEFF88130000FFFFFFEF4423002216
:101FC000C252043B014AC2520020704780BFFFFF4B
:101FD0004022835A02490B40835200207047C0467A
:101FE0007F40000084B001910292039340220123BC
:101FF000835200238352043283520C3283520020D6
:1020000004B07047F0B503000D78AD0045192A887B
:10201000BA480240C878022859D00AD8002852D0BD
:10202000012804D18020C0000243002009E00120E3
:1020300007E0032804D1C020C0000243002000E0D4
:102040000120AF4C224392B22A800A7896009E1952
:1020500035882DB2AB4F3D402A4392B21443A4B20F
:1020600034800A7B002A00D0A2E04A78002A3BD0C4
:1020700050229C5A1C190A78D20012198024E400BC
:10208000A4466244CC886408640014800A789200F4
:102090009A181488640605D515883D409A4C2C433F
:1020A000A4B21480CA78012A13D00A7892009A1830
:1020B000138896490B4020214B409BB290490B431B
:1020C0009BB21380CEE08024A4002243B9E7002015
:1020D000B7E70A7892009B1819888C4A1140884A01
:1020E0000A4392B21A80BDE050255C5B1C190A7845
:1020F000D2001219864CA4466244CC88640864005D
:1021000014805C5B1C190A78D2001219814CA44619
:1021100062441488A405A40D14800C693E2C28D9AF
:102120006509E40600D1013D1488AD02ADB2254336
:10213000794C2C43A4B214800A7892009A1814881F
:10214000640406D515886F4C2540744C2C43A4B20A
:1021500014800A78002A1ED192009A1813887049B8
:102160000B40C02189015940654B0B439BB2138042
:1021700078E0002C05D11488674D2C43A4B214805C
:10218000DAE76508E40700D501351488AD02ADB281
:102190002C431480D0E792009A18138860490B40B2
:1021A000802189015940564B0B439BB2138059E063
:1021B000CA78022A57D00A7892009A181588594C82
:1021C00025404F4C2C43A4B2148050255C5B1C1955
:1021D0000A78D20012198024E400A44662440C89D3
:1021E0006408640014805C5B1C190A78D200121920
:1021F000474CA44662444C896408640014804A78C1
:10220000002A3BD10A7892009A181488640406D5F3
:1022100015883C4C2540414C2C43A4B214800A78CC
:1022200092009A181488640606D51588354C254006
:10223000354C2C43A4B214800D78AD005D192C8868
:10224000374A1440C022920162402D4C224392B280
:102250002A800A7892009B181A882C490A40144355
:10226000A4B21C80F0BD0A7892009A181588254CFB
:1022700025402D4C2C43A4B21480A6E70A78920086
:102280009A181488640406D515881E4C2540234CE2
:102290002C43A4B214800A7892009A181488640619
:1022A00006D51588174C2540174C2C43A4B2148032
:1022B000CA78012A17D00C78A4001C192288134D63
:1022C0002A4020256A4092B20D4D2A4392B22280C4
:1022D0000A7892009B181988114A1140084A0A434B
:1022E00092B21A80BEE70A7892009A181588074CB5
:1022F0002540034C2C43A4B21480E9E78F89FFFFEB
:102300008080FFFF8F8FFFFFC080FFFFBF8FFFFF29
:1023100004040000060400000080FFFF80C0FFFFEF
:102320008FBFFFFF8F8EFFFF8081FFFF10B50B7BFC
:10233000002B33D14B78002B18D00B789B00C3189F
:102340001A88520606D51C884E4A14404E4A22432B
:1023500092B21A800B789B00C31819884B4A11401F
:102360004B4A0A4392B21A80002010BD0B789B00A2
:10237000C3181A88520406D51C88424A1440454A9C
:10238000224392B21A800B789B00C3181988424AE4
:1023900011403F4A0A4392B21A80E5E74B78002B7E
:1023A00037D10B789B00C3181A88520406D51C88B5
:1023B000344A1440374A224392B21A800B789B0069
:1023C000C3181A88520606D51C882E4A14402E4A75
:1023D000224392B21A800B789B00C3181C88294AAA
:1023E0001440294A224392B21A800C78A40004199E
:1023F0002388294A1340264A13439BB223800B7833
:102400009B00C3181988214801400A4392B21A80E0
:10241000AAE70B789B00C3181A88520406D51C88BB
:10242000184A14401B4A224392B21A800B789B0030
:10243000C3181A88520606D51C88124A1440124A3C
:10244000224392B21A800B789B00C3181C880D4A55
:102450001440104A224392B21A800C78A400041946
:1024600023880A4A13400A4A13439BB223800B78FD
:102470009B00C018038808490B401A4392B202809F
:1024800072E7C0468F8FFFFFC080FFFFBF8FFFFF47
:102490008080FFFF80C0FFFF8FBFFFFF4B78002BC6
:1024A0000ED00B789B00C01803880C4A13401022F2
:1024B00053409BB20A4A13439BB2038000207047EB
:1024C0000B789B00C0180388064A134080225201F3
:1024D0005A40034B13439BB20380EFE7BF8FFFFFCC
:1024E0008080FFFF8FBFFFFF10B50B7B002B3AD121
:1024F0004B78002B1DD00B789B00C3181A8852060E
:1025000006D51C88194A1440194A224392B21A80EF
:10251000CB78012B27D00A789200821813881549AE
:102520000B4020214B409BB213490B439BB21380BD
:1025300019E00B789B00C3181A88520406D51C8832
:102540000A4A14400D4A224392B21A800B789B002B
:10255000C01803880A4A1340C02292015A40064B11
:1025600013439BB20380002010BDC0468F8FFFFF36
:10257000C080FFFFBF8FFFFF8080FFFF80C0FFFF95
:102580008FBFFFFF002902D14C238022C2520020BE
:10259000704700005822835A02490B439BB2835272
:1025A000002070470080FFFF4423C05A80B270476C
:1025B00010B501335B0812188020C00084466244C5
:1025C00007E008784C782402044314800232023178
:1025D000013B002BF5D110BD70B505000C004A7809
:1025E000012A35D00B7B002B00D06DE28B69096985
:1025F0008B4200D852E25B1AA3615023EA5AAA1810
:102600002378DB009B18AB4A944663441A889205F2
:10261000920D1A803E2900D844E24A09C90600D129
:10262000013A1988920292B21143A34A0A4392B224
:102630001A8023789B00ED182B88A04A1340C022F3
:1026400092015A409E4B13439BB22B80002070BDD9
:102650008E6909698E4200D90E00237B002B2BD096
:10266000E378022B48D0236A9B1B236223789900CE
:1026700069180988490600D4D0E1002A00D0BCE1DD
:102680005032AA5AAA18DB009B188A4A944663441F
:102690001A889205920D1A803E2E00D89BE172098D
:1026A000F10600D1013A1988920292B21143824A8E
:1026B0000A4392B21A80AAE1B6B2E2886169330095
:1026C0002800FFF775FF5023EA5AAA182378DB0089
:1026D0009B187C4A944663441E8022789200AA1874
:1026E000138879490B4030214B409BB274490B430E
:1026F0009BB213800020AAE7236A994200D34FE1DE
:1027000023789B00EB181988704A1140704A0A43DD
:1027100092B21A80236A9B1B236223789A00AA181C
:102720001288520600D495E06278002A2CD15032EB
:10273000AA5AAA18DB009B185E4A944663441A887A
:102740009205920D1A803E2E0CD97209F10600D125
:10275000013A1988920292B21143574A0A4392B23F
:102760001A8013E0002E05D11A8853490A4392B209
:102770001A800BE07208F10700D501321988920225
:1027800092B20A431A8001E0012A2DD06289B3B2C5
:1027900061692800FFF70CFF63699B196361236A75
:1027A000226993422BD99B1B23626378002B3CD177
:1027B0005033EA5AAA182378DB009B18414A944602
:1027C00063441A889205920D1A803E2E1BD9720915
:1027D000F10600D1013A1988920292B21143364AA9
:1027E0000A4392B21A8022E04F32AA5AAA18DB009A
:1027F0009B18304A94466344B2B21A80C6E700225E
:1028000022621E00D1E7002E05D11A882A490A4308
:1028100092B21A800BE07208F10700D501321988D4
:10282000920292B20A431A8001E0012B06D022895B
:10283000B3B261692800FFF7BBFE4EE74F33EA5A97
:10284000AA182378DB009B181E4A94466344B2B250
:102850001A80ECE76278002A3CD15032AA5AAA18B2
:10286000DB009A18174B9C46624413889B059B0D0E
:1028700013803E2E0CD97309F10600D1013B11885B
:102880009B029BB219430C4B0B439BB2138023E07A
:10289000002E05D1138808490B439BB213801BE01F
:1028A0007308F10700D5013311889B029BB20B43DB
:1028B000138011E0060400000080FFFF8FBFFFFFC0
:1028C0008080FFFF02040000BF8FFFFF8F8FFFFF9C
:1028D0008081FFFF012A2DD02289B3B261692800CF
:1028E000FFF766FE63699B196361236A226993425D
:1028F0002BD99B1B23626378002B3CD15033EA5ABF
:10290000AA182378DB009B18C04A944663441A88AF
:102910009205920D1A803E2E1BD97209F10600D144
:10292000013A1988920292B21143B94A0A4392B20B
:102930001A8022E04F32AA5AAA18DB009B18B54A27
:1029400094466344B2B21A80C6E7002222621E0097
:10295000D1E7002E05D11A88AD490A4392B21A80F8
:102960000BE07208F10700D501321988920292B289
:102970000A431A8001E0012B06D06289B3B2616973
:102980002800FFF715FEA8E64F33EA5AAA18237865
:10299000DB009B189D4A94466344B2B21A80ECE770
:1029A00022789200AA1810889B4908409B4901434D
:1029B00089B211805022A95A69182278D20052187F
:1029C00094498C4662449BB2138022896169280035
:1029D000FFF7EEFD81E6002E05D11A888C490A43E7
:1029E00092B21A8013E07208F10700D501321988FB
:1029F000920292B20A431A8009E05022AA5AAA18F7
:102A0000DB009B18814A94466344B2B21A80628903
:102A1000B3B261692800FFF7CBFD5EE6002A2CD136
:102A20005032AA5AAA18DB009B187A4A944663448B
:102A30001A889205920D1A803E2E0CD97209F10661
:102A400000D1013A1988920292B21143704A0A43A6
:102A500092B21A801BE0002E05D11A886C490A43F5
:102A600092B21A8013E07208F10700D5013219887A
:102A7000920292B20A431A8009E05022AA5AAA1876
:102A8000DB009B18634A94466344B2B21A802289E1
:102A9000B3B261692800FFF78BFD1EE60022A26138
:102AA0001900AAE5002905D11A8859490A4392B2AA
:102AB0001A80BEE54A08C90700D50132198892027A
:102AC00092B20A431A80B4E5CB78022B48D0012B8E
:102AD00000D00BE189692369994200D8CFE0C91A77
:102AE000A161002A1BD15032A95A69182278D2005C
:102AF000521848498C46624411888905890D118015
:102B00003E2B00D8BFE05909D80600D10139108802
:102B1000890289B208433E49014389B21180627833
:102B2000002A00D0D3E05032A95A69182278D20086
:102B3000521836498C46624411888905890D1180E6
:102B40003E2B00D8B1E05909DB0600D101391388CA
:102B5000890289B219432E4B0B439BB2138068E55F
:102B6000002A1AD14E33C25A82180B78DB009B1808
:102B7000284A99180B889B059B0D0B8022693E2AD9
:102B80002AD95309D20600D1013B0A889B029BB285
:102B90001A431F4B13439BB20B806378002B49D120
:102BA0005033EA5AAA182378DB009B18174A991861
:102BB0000B889B059B0D0B8022693E2A1ED9530969
:102BC000D20600D1013B0A889B029BB21A43104BEC
:102BD00013439BB20B802FE0002A05D10B880C4ACF
:102BE00013439BB20B80D8E75308D20700D50133BB
:102BF0000A889B029BB213430B80CEE7002A0FD1B9
:102C00000B88034A13439BB20B8015E006040000B7
:102C10000080FFFF020400008F8EFFFF8080FFFF17
:102C20005308D20700D501330A889B029BB2134395
:102C30000B8001E0012B16D0E369002B00D1F8E4F2
:102C400023789B00EB181A8829490A408A4202D04F
:102C5000002A00D0EDE41988264A1140264A0A438A
:102C600092B21A80E5E44F33EA5AAA182378DB00BF
:102C70009B18224A94466344228A1A80DCE7002388
:102C8000A3610B002DE7002B05D111881C480143DF
:102C900089B2118043E75908D80700D5013110885F
:102CA000890289B20143118039E7002B05D11388CD
:102CB00013490B439BB21380BBE45908DB0700D5D3
:102CC00001311388890289B20B431380B1E4012AD0
:102CD00000D0AEE44F32A95A69182278D2005218B7
:102CE00006498C4662449BB21380A2E40120AEE404
:102CF000404000008F8FFFFFC080FFFF06040000F0
:102D00000080FFFF30B55D0812188020C0008446A7
:102D1000624406E0148802320C70240A4C700231BE
:102D2000013D002DF6D1DB0701D513880B7030BDB6
:102D30002923038000487047440000202923038092
:102D40000048704770000020292303800048704726
:102D5000B4000020AE239B00C25850230021D15460
:102D60000020704710B5AE239B00C458E36C012BC4
:102D700001D0002010BDAF239B00C358DB686178F1
:102D8000207898470023E364F3E700000A230380D8
:102D900000487047A800002070B50400AE239B00D7
:102DA000C5580433C358DB686978287898474023AE
:102DB0002A000121200001F07EF8002070BD0000F3
:102DC00070B582B0AE239B00C6586B460022DA80F5
:102DD0000B78603214001C401A422CD0202C00D0FA
:102DE00080E04B780B2B22D89B00414AD3589F465A
:102DF0008B783364002478E031004031012200F008
:102E0000E8FD002471E04B881B0A736400246CE029
:102E100031004431012200F0DCFD002465E0012393
:102E2000F364CA88310000F0EAFD00245DE000F0A0
:102E30007BFA022459E04D780A2D3CD00ED8002DA3
:102E400016D0062D4AD14B881B0A222B20D0212BCD
:102E500029D00021002200F0BCFD46E00B2D3DD121
:102E6000A7239B00C35C032B34D18B78B3643CE075
:102E7000A7239B00C35C032B03D000F055FA022468
:102E800033E002226B46991D00F0A3FD2C002CE0DC
:102E9000CB881A1C3F2B00D93F2292B2AF239B0054
:102EA000C3581968D7E7CB881A1C092B00D9092207
:102EB00092B21049CFE7A7239B00C35C032B03D03A
:102EC00000F032FA022410E031004831012200F013
:102ED00080FD0AE000F028FA022406E000F024FA5F
:102EE000022402E000F020FA0224200002B070BDAB
:102EF000743F00089C00002070B50400812100F0A0
:102F000094FF0025E5620121200000F08EFFB6232A
:102F10005B00E5504D33FF33E358002B0BD0AF235C
:102F20009B00E3589B689847AE25AD00605900F0C0
:102F3000CFFF00236351002070BD70B5040008234B
:102F40000322812100F065FF0125E56208230322A9
:102F50000121200000F05DFFB6235B00E550542006
:102F600000F0B2FF0500AE239B00E05000280FD018
:102F700050230022C254AF239B00E3585B6898475C
:102F800040232A000121200000F095FF002070BDA1
:102F90000120FCE7002904D0AF239B00C150002092
:102FA00070470220FCE710B5002816D0AD239B0027
:102FB000C358002B03D0AD239B000024C45000292C
:102FC00002D0AC239B00C150A7239B000121C15418
:102FD000027000F0DBFE002010BD0220FCE700299B
:102FE00004D0AD239B00C150002070470220FCE7B5
:102FF00010B500F005FF002010BD10B5AD239B00FB
:10300000C358002B06D01B689847002800D110BD7C
:103010000220FCE70220FAE710B5AD239B00C3585D
:103020005B689847002010BD70B50400AA239B0080
:10303000C518280000F064F9A5239B000122E25086
:10304000114BE25A163BE2501033E15C1F230B4058
:10305000012B0FD0022B12D0002B05D07F239943D8
:10306000200000F0EBFE03E02900200000F022FB2E
:10307000002070BD2900200000F052FBF8E7290075
:10308000200000F080FBF3E7AE02000070B5050001
:103090000C001100002C38D1A5239B00C358032B32
:1030A00003D0052B28D020003DE002005532FF322E
:1030B000D368126993420DD99B1A5530FF30C36013
:1030C0009A4205D99AB2280000F0AAFC20002AE012
:1030D00092B2F8E7AD239B00C3581B69002B04D0C4
:1030E000A7229200825C032A04D0280000F0A0FCF2
:1030F000200018E09847F8E7A5239B000022C25063
:10310000002100F09BFE20000DE0AD239B00C35882
:103110009B69002B08D0A7229200825C032A05D16C
:1031200021009847002070BD0220FCE70220FAE74A
:10313000F8B505000C001100002C5BD1A5239B0005
:10314000C358022B0ED0042B01D0002B03D18021B9
:10315000280000F073FEA8239B00EB5C012B43D0FA
:103160002000F8BD026A466AB24220D8C769310021
:103170003800FDF74FF8002906D1BE4204D8A62337
:103180009B00EB589F421ED3AD239B00EB58DB689E
:10319000002B04D0A7229200AA5C032A21D0802110
:1031A000280000F04BFE280000F04EFCD3E7921BF5
:1031B000026292B200F01BFC0023002200212800D2
:1031C00000F079FEC7E70022280000F010FCA623DB
:1031D0009B000022EA5000230021280000F06BFE33
:1031E000B9E728009847DAE7A8239B000022EA54B1
:1031F0002000B6E7AD239B00C3585B69002B08D0C5
:10320000A7229200825C032A05D121009847002062
:10321000A7E70220A5E70220A3E770B5040040233A
:103220000022002100F0F5FD0125AC235B00E550F4
:1032300040260C33E650253BFF3B00228021200036
:1032400000F0E7FDA5616662A7239B00E55400231B
:10325000A5229200A35063601032A350AE239B00BE
:10326000E358002B06D0AD239B00E3585B68002198
:1032700020009847002070BD0174002070470000B6
:10328000A7239B00C15C034A81540422C25400203E
:103290007047C0469D020000A7239B00C35C042B1F
:1032A00001D000207047024BC25C013BC254F8E7DA
:1032B0009D02000010B5A7239B00C35C032B01D027
:1032C000002010BDAD239B00C358DB69002BF7D055
:1032D0009847F5E70300002002E00130C0B2013357
:1032E0001A78002AF9D1704710B54B88012B00D00D
:1032F00010BDA9239B000122C25000F099FBF7E703
:103300000B7803704B7843708B78CA7812029B1845
:1033100043800B794A7912029B1883808B79CA7992
:1033200012029B18C380704710B50400802100F082
:1033300085FD0021200000F081FD10BD30B583B077
:1033400005000C006B460022DA804A88130A072B1E
:1033500000D9B6E09B006549CB589F46AC239B0043
:10336000C3581B68007C6A46911D98476B4606331C
:103370001B88002B03D0E288002A00D0A6E0E38857
:10338000002B00D1AEE003B030BD037C002B09D18F
:10339000AD239B00C3589B6A6A46901D9847022341
:1033A0004370E3E7AD239B00C358DB6A6A46901D78
:1033B000984702234370D9E7D2B2052A5DD892001C
:1033C0004B4B9B589F46AC239B00C3585B68002B1C
:1033D00004D0007C6A46911D9847C7E72100FFF79B
:1033E000A3FFD0E7AC239B00C3589B68002B04D0FD
:1033F000007C6A46911D9847B8E72100FFF794FFCB
:10340000C1E7AC239B00C358DB68002B04D0007CD1
:103410006A46911D9847A9E72100FFF785FFB2E7AB
:10342000AC239B00C3581B69002B04D0007C6A4668
:10343000911D98479AE72100FFF776FFA3E7AC2399
:103440009B00C3585B69002B04D0007C6A46911D29
:1034500098478BE72100FFF767FF94E7AC239B00B9
:10346000C3589B69002B04D0007C6A46911D984785
:103470007CE72100FFF758FF85E72100FFF754FFA5
:1034800081E7037C002B07D1AD239B00C3585B6B06
:103490006A46901D984769E72100FFF745FF72E7EC
:1034A000037C002B09D1AD239B00C3581B6B6A46DC
:1034B000901D98470723437058E72100FFF734FF1A
:1034C00061E721002800FFF72FFF5CE7191C9342FA
:1034D00000D9111C8AB26B46D9800100280000F087
:1034E00078FA4CE7280000F0A3FA4CE7A43F000864
:1034F000C43F000870B504008B88002B23D1CB8813
:10350000002B20D14B887F2B1DD87F251D40A72362
:103510009B00C35C032B0ED00D4BC554290000F05B
:10352000B8FC200000F084FA002D07D0A7239B00F0
:103530000222E2540AE0FFF7F7FE07E0A7239B0010
:103540000122E25402E02000FFF7EEFE70BDC0460B
:103550009E02000070B504000D0089782A4B197096
:1035600041290FD8A7239B00C35C022B0ED0032B4D
:1035700023D02900FFF7D8FE234B19782000FFF74E
:103580004BFD02E02900FFF7CFFE70BD002911D0EE
:103590004160A7239B000322C254FFF72EFD02289F
:1035A00003D0200000F044FAEFE729002000FFF7E5
:1035B000BBFEEAE700F03CFAE7E7002911D04368D8
:1035C00099421ED0D9B2FFF727FD0F4B19786160E1
:1035D0002000FFF712FD02280ED0200000F028FA8C
:1035E000D3E7A7239B000222C2544160FFF714FDDA
:1035F000200000F01DFAC8E729002000FFF794FE24
:10360000C3E700F015FAC0E7A001002010B5CB8891
:10361000012B0BD1A7239B00C35C022B09D9032BE1
:1036200009D1011D012200F0D4F901E0FFF77CFE71
:1036300010BD002B02D1FFF777FEF9E7002383606E
:1036400001000831012200F0C4F9F1E710B5A72309
:103650009B00C35C013B022B14D8CB88022B0ED1FC
:103660000123C360A9239B00C358002B01D003236F
:10367000C36001000C31022200F0ABF910BDFFF76E
:1036800053FEFBE7FFF750FEF8E710B5A7239B00BA
:10369000C35C013B022B0AD84B88012B00D010BD24
:1036A000A9239B000022C25000F0C2F9F7E7FFF700
:1036B0003BFEF4E710B50A7860231340202B06D0B8
:1036C000402B04D0002B09D0FFF72EFE04E0AD23E1
:1036D0009B00C3589B689847002010BD4B78092B6E
:1036E00018D89B000D4AD3589F46FFF727FEF3E7F3
:1036F000FFF700FFF0E7FFF72DFFEDE7FFF786FF8D
:10370000EAE7FFF7A3FFE7E7FFF7EEFDE4E7FFF7E0
:10371000BCFFE1E7FFF708FEDEE7C046DC3F00083C
:1037200070B505000C000A7860231340202B07D0E9
:10373000402B05D0002B03D0FFF7F6FD002070BD15
:10374000A7239B00EB5C013B022B17D82379402B6E
:103750000FD8AD239B00EB589B68210028009847A9
:10376000E388002BEAD10028E8D1280000F060F9B6
:10377000E4E721002800FFF7D7FDDFE7210028005C
:10378000FFF7D2FDDAE770B5050088880A790B7873
:1037900060241C40202C08D0402C06D0002C0DD0DA
:1037A0002800FFF7C1FD002406E0AD239B00EB5885
:1037B0009B68280098470024200070BD202C0AD068
:1037C0004E78012E3ED0032E0DD0002E64D028005E
:1037D000FFF7AAFDF0E7AD239B00EB589B6828009C
:1037E00098470400E8E7A7239B00EB5C022B05D079
:1037F000032B14D02800FFF797FDDDE7002A01D046
:10380000802A03D12800FFF78FFDD5E7110028009B
:1038100000F014FB8021280000F010FBCCE74B885F
:10382000002B06D1002A04D0802A02D0CB88002B9E
:1038300003D0280000F0FCF8BEE71100280000F0DB
:10384000FDFAF6E7A7239B00EB5C022B05D0032BC8
:1038500014D02800FFF768FDAEE7002A01D0802AC7
:1038600003D12800FFF760FDA6E71100280000F053
:10387000E5FA8021280000F0E1FA9DE74B88002B53
:103880009AD1530603D1280000F0D2F894E7110032
:10389000280000F0DCFAF6E7A7239B00EB5C022B84
:1038A00006D0032B29D02800FFF73EFD340083E724
:1038B000002A01D0802A12D1000615D47F2313409C
:1038C0009900C91889005131FF316918043100236A
:1038D0000B600222280000F07CF834006CE728001E
:1038E000FFF722FD340067E77F2313409900C918D2
:1038F0008900103169180431E9E744B2000622D486
:103900000F20104083001B189B00EB185933FF3326
:103910001B68002B25D0002C28DB7F2313409C0044
:10392000E418A4005134FF342C190434002A01D0C7
:10393000802A24D10023236002222100280000F0E5
:1039400048F8340038E70F20104083001B189B0014
:10395000EB189B69002BDED12800FFF7E5FC340053
:103960002AE72800FFF7E0FC340025E77F23134017
:103970009C00E418A40010342C190434D6E711007C
:10398000280000F06DFA002802D001232360D3E75D
:1039900000232360D0E770B504000D001600002856
:1039A00016D0FFF797FC013043009BB233802B7099
:1039B00003236B70013B08E001345A1CD2B2E85477
:1039C0000233DBB2AA180021117020780028F3D14D
:1039D00070BD10B51300A522920002248450C3616B
:1039E00003620A00002100F05DFA002010BD10B54E
:1039F00013000A00002100F055FA002010BD10B598
:103A00001300A522920003248450393AFF3A8350D0
:103A1000043283500A00002100F04DFA002010BD4E
:103A200010B513000A00002100F045FA002010BD77
:103A300010B5A5239B000422C250002300220021C0
:103A400000F030FA002010BD10B5A5239B00052220
:103A5000C25000230022002100F02DFA002010BDEA
:103A600010B5124912480022FFF79DFA002811D123
:103A700010490F48FFF7B3FA00280ED10E490C4841
:103A8000FFF788FA00280BD10948FFF7B1FA0028A0
:103A900009D110BDFCF742FCEAE7FCF73FFCEDE77B
:103AA000FCF73CFCF0E7FCF739FCF2E730010020C2
:103AB000A40100200C0000202001002000207047FD
:103AC0000020704700B591B0164BAE229200995875
:103AD000002303E0CA5C6846C25401333F2BF9DD82
:103AE000402B02D0002011B000BD6B461B78DB07D5
:103AF0000BD4012201210C48FCF75EFE902001222C
:103B00001021C005FCF758FEECE700220121064811
:103B1000FCF752FE902000221021C005FCF74CFE5D
:103B2000E0E7C046A40100200014004812230B80E7
:103B3000004870474C01002004230B800048704768
:103B40006001002030B500230AE05D0037344C5599
:103B500000015C0001340C19002525700133DBB233
:103B6000934206D2040F092CEFD85D0030344C5537
:103B7000EEE730BD70B50B4B18680B4B1D680B4B57
:103B80001B68C018002800D170BD094CA11C082278
:103B9000FFF7D8FF2100123104222800FFF7D2FFDF
:103BA000F2E7C046ACF7FF1FB0F7FF1FB8F7FF1FE3
:103BB0006401002010B51A230B80FFF7DBFF0148DA
:103BC00010BDC0466401002010B50A00002805D1D0
:103BD00005490648FFF7DFFE034810BD02490348C8
:103BE000FFF7D9FEF8E7C04668040020044000084B
:103BF00010B50A00034C04482100FFF7CCFE20005A
:103C000010BDC046680400201440000810B50A002A
:103C1000002805D105490648FFF7BDFE034810BD41
:103C200002490348FFF7B7FEF8E7C04668040020E2
:103C30002040000810B50A00002805D105490648B3
:103C4000FFF7A9FE034810BD02490348FFF7A3FE92
:103C5000F8E7C0466804002028400008022804D085
:103C600005D8002800D0022070470120FCE7022080
:103C7000FAE710B5FCF754FB10BD000000B583B0A7
:103C800002680C4B9A4201D003B000BD0A4BDA69BE
:103C9000802109040A43DA61DB690B400193019B2F
:103CA000002200211F20FCF771FC1F20FCF79EFC66
:103CB000EAE7C046005C00400010024010B5010079
:103CC000BC239B00C058403B9C466144FFF7ACF9C5
:103CD00010BD10B50300BC22920080588A00521813
:103CE000D2009B187D33FF331A68FFF7CFF910BD60
:103CF00010B50300BC22920080588A005218D200EE
:103D00009B18DA6BFFF714FA10BD10B5BC239B00AB
:103D1000C058FFF7CFFA10BD70B504008368022BBE
:103D200009D1BC25AD0060590121FFF7A5FA605902
:103D3000FFF773FA70BDFCF7F1FAF2E710B5040073
:103D4000BC239B00C058FFF79BFAA369002B04D04B
:103D5000024A136906210B43136110BD00ED00E018
:103D600010B504008369002B05D1BC239B00E058EB
:103D7000FFF792FA10BD044A136906218B431361C1
:103D8000FFF777FFF1E7C04600ED00E070B50400F3
:103D90001948BC239B00C450303BE050174B0360D4
:103DA00008234360063B8360036100238361C36192
:103DB0000362FCF78FFD00281BD1B025AD006059D0
:103DC000182300220021FDF7A2FC6059582300228D
:103DD0008021FDF79CFC6059982300228121FDF78A
:103DE00096FC6059D82300220121FDF790FC0020A9
:103DF00070BDFCF793FAE0E768060020005C004025
:103E000010B5B0239B00C058FCF7D4FDFFF726FF88
:103E100010BD10B514001A00B0239B00C058230039
:103E2000FDF746FBFFF71AFF10BD10B5B0239B004E
:103E3000C058FDF778FBFFF711FF10BD10B5B02398
:103E40009B00C058FDF7EFFBFFF708FF10BD10B552
:103E5000B0239B00C058FDF71DFCFFF7FFFE10BD0F
:103E6000B0239B00C3584AB2002A09DB7F221140CD
:103E70008A005218D2009B186B33FF3318787047B2
:103E80007F22114001318A005218D2009B18987885
:103E9000F5E710B5B0239B00C058FDF733FAFFF7E4
:103EA000DDFE10BD10B5B024A4000059FDF794FB51
:103EB000FFF7D4FE10BD10B5B024A4000059FDF7E3
:103EC00066FBFFF7CBFE10BD004870475C09002081
:103ED000704703008218934200D170471970013374
:103EE000F9E7000070B500260C4C0D4D641BA410C2
:103EF000A64209D1002600F019F80A4C0A4D641BAD
:103F0000A410A64205D170BDB300EB589847013606
:103F1000EEE7B300EB5898470136F2E7304000086F
:103F2000304000083440000830400008F8B5C04672
:103F3000F8BC08BC9E467047F8B5C046F8BC08BC43
:043F40009E467047E2
:103F44000000000000000000010203040607080945
:103F540002030405060708090A0B0C0D0E0F1010C6
:103F64000102030405060708090A0B0C0D0E0F10C5
:103F74002E2E00082E2E0008102E0008F82D000802
:103F84002E2E00082E2E00082E2E00082E2E00089D
:103F94002E2E00081E2E0008062E0008F02D000804
:103FA400C23400085C3300088A330008B8330008C0
:103FB400C2340008C234000882340008A034000867
:103FC400C6330008E4330008023400082034000833
:103FD4003E3400085C340008023700080E3700083D
:103FE400143700080837000814370008F0360008B2
:103FF400EA36000814370008FC360008F6360008D4
:10400400416C6F70204E756D4C6F636B0000000047
:10401400416C6F702044495900000000416C6F707E
:0C40240044697900416C6F7055534200F4
:04403000E90000089B
:04403400C1000008BF
:1040380000127A0001000000040000003B2F000875
:10404800F92E0008C12D000800000000652D0008A9
:10405800552D0008992D0008000000000000000000
:10406800000000003D2D0008312D0008492D0008F2
:104078008D2D000809022900010100C03209040041
:10408800000203010100092111012101223F00075B
:10409800058103080001070501030800010000006D
:1040A80009022900010100C03209040000020300CE
:1040B8000000092111010001223F000705810308C2
:1040C800000507050103080005000000092111018A
:1040D8000001223F000000000A0600020000004024
:1040E8000100000009022900010100C03209040092
:1040F800000203000000092111010001223F00070E
:1041080005810308000107050103080001000000FC
:1041180005010906A101050719E029E71500250190
:10412800750195088102950175088103950575014A
:104138000508190129059102950175039103950652
:104148007508150025650507190029658100C00057
:10415800E0000020BD3A0008C13A0008C53A00084E
:104168002D3B0008393B0008F13B0008C93B00081B
:10417800B53B00080D3C0008353C00081201000260
:104188000000004034122211000201020341000025
:10419800040309041A0300000000000000000000E6
:1041A8000000000000000000000000000000000007
:04000005080004519A
:00000001FF
